{
  "_format": "hh-sol-artifact-1",
  "contractName": "NFTAuction",
  "sourceName": "contracts/NFTAuction.sol",
  "abi": [
    {
      "inputs": [
        {
          "internalType": "address",
          "name": "initialOwner",
          "type": "address"
        }
      ],
      "stateMutability": "nonpayable",
      "type": "constructor"
    },
    {
      "inputs": [
        {
          "internalType": "address",
          "name": "sender",
          "type": "address"
        },
        {
          "internalType": "uint256",
          "name": "tokenId",
          "type": "uint256"
        },
        {
          "internalType": "address",
          "name": "owner",
          "type": "address"
        }
      ],
      "name": "ERC721IncorrectOwner",
      "type": "error"
    },
    {
      "inputs": [
        {
          "internalType": "address",
          "name": "operator",
          "type": "address"
        },
        {
          "internalType": "uint256",
          "name": "tokenId",
          "type": "uint256"
        }
      ],
      "name": "ERC721InsufficientApproval",
      "type": "error"
    },
    {
      "inputs": [
        {
          "internalType": "address",
          "name": "approver",
          "type": "address"
        }
      ],
      "name": "ERC721InvalidApprover",
      "type": "error"
    },
    {
      "inputs": [
        {
          "internalType": "address",
          "name": "operator",
          "type": "address"
        }
      ],
      "name": "ERC721InvalidOperator",
      "type": "error"
    },
    {
      "inputs": [
        {
          "internalType": "address",
          "name": "owner",
          "type": "address"
        }
      ],
      "name": "ERC721InvalidOwner",
      "type": "error"
    },
    {
      "inputs": [
        {
          "internalType": "address",
          "name": "receiver",
          "type": "address"
        }
      ],
      "name": "ERC721InvalidReceiver",
      "type": "error"
    },
    {
      "inputs": [
        {
          "internalType": "address",
          "name": "sender",
          "type": "address"
        }
      ],
      "name": "ERC721InvalidSender",
      "type": "error"
    },
    {
      "inputs": [
        {
          "internalType": "uint256",
          "name": "tokenId",
          "type": "uint256"
        }
      ],
      "name": "ERC721NonexistentToken",
      "type": "error"
    },
    {
      "inputs": [
        {
          "internalType": "address",
          "name": "owner",
          "type": "address"
        }
      ],
      "name": "OwnableInvalidOwner",
      "type": "error"
    },
    {
      "inputs": [
        {
          "internalType": "address",
          "name": "account",
          "type": "address"
        }
      ],
      "name": "OwnableUnauthorizedAccount",
      "type": "error"
    },
    {
      "anonymous": false,
      "inputs": [
        {
          "indexed": true,
          "internalType": "address",
          "name": "owner",
          "type": "address"
        },
        {
          "indexed": true,
          "internalType": "address",
          "name": "approved",
          "type": "address"
        },
        {
          "indexed": true,
          "internalType": "uint256",
          "name": "tokenId",
          "type": "uint256"
        }
      ],
      "name": "Approval",
      "type": "event"
    },
    {
      "anonymous": false,
      "inputs": [
        {
          "indexed": true,
          "internalType": "address",
          "name": "owner",
          "type": "address"
        },
        {
          "indexed": true,
          "internalType": "address",
          "name": "operator",
          "type": "address"
        },
        {
          "indexed": false,
          "internalType": "bool",
          "name": "approved",
          "type": "bool"
        }
      ],
      "name": "ApprovalForAll",
      "type": "event"
    },
    {
      "anonymous": false,
      "inputs": [
        {
          "indexed": true,
          "internalType": "address",
          "name": "previousOwner",
          "type": "address"
        },
        {
          "indexed": true,
          "internalType": "address",
          "name": "newOwner",
          "type": "address"
        }
      ],
      "name": "OwnershipTransferred",
      "type": "event"
    },
    {
      "anonymous": false,
      "inputs": [
        {
          "indexed": true,
          "internalType": "address",
          "name": "from",
          "type": "address"
        },
        {
          "indexed": true,
          "internalType": "address",
          "name": "to",
          "type": "address"
        },
        {
          "indexed": true,
          "internalType": "uint256",
          "name": "tokenId",
          "type": "uint256"
        }
      ],
      "name": "Transfer",
      "type": "event"
    },
    {
      "inputs": [
        {
          "internalType": "address",
          "name": "to",
          "type": "address"
        },
        {
          "internalType": "uint256",
          "name": "tokenId",
          "type": "uint256"
        }
      ],
      "name": "approve",
      "outputs": [],
      "stateMutability": "nonpayable",
      "type": "function"
    },
    {
      "inputs": [
        {
          "internalType": "uint256",
          "name": "",
          "type": "uint256"
        }
      ],
      "name": "auctions",
      "outputs": [
        {
          "internalType": "address payable",
          "name": "seller",
          "type": "address"
        },
        {
          "internalType": "uint256",
          "name": "startingPrice",
          "type": "uint256"
        },
        {
          "internalType": "uint256",
          "name": "highestBid",
          "type": "uint256"
        },
        {
          "internalType": "address",
          "name": "highestBidder",
          "type": "address"
        },
        {
          "internalType": "uint256",
          "name": "endTime",
          "type": "uint256"
        },
        {
          "internalType": "bool",
          "name": "ended",
          "type": "bool"
        }
      ],
      "stateMutability": "view",
      "type": "function"
    },
    {
      "inputs": [
        {
          "internalType": "address",
          "name": "owner",
          "type": "address"
        }
      ],
      "name": "balanceOf",
      "outputs": [
        {
          "internalType": "uint256",
          "name": "",
          "type": "uint256"
        }
      ],
      "stateMutability": "view",
      "type": "function"
    },
    {
      "inputs": [
        {
          "internalType": "uint256",
          "name": "tokenId",
          "type": "uint256"
        }
      ],
      "name": "endAuction",
      "outputs": [],
      "stateMutability": "nonpayable",
      "type": "function"
    },
    {
      "inputs": [
        {
          "internalType": "uint256",
          "name": "tokenId",
          "type": "uint256"
        }
      ],
      "name": "getApproved",
      "outputs": [
        {
          "internalType": "address",
          "name": "",
          "type": "address"
        }
      ],
      "stateMutability": "view",
      "type": "function"
    },
    {
      "inputs": [
        {
          "internalType": "address",
          "name": "owner",
          "type": "address"
        },
        {
          "internalType": "address",
          "name": "operator",
          "type": "address"
        }
      ],
      "name": "isApprovedForAll",
      "outputs": [
        {
          "internalType": "bool",
          "name": "",
          "type": "bool"
        }
      ],
      "stateMutability": "view",
      "type": "function"
    },
    {
      "inputs": [
        {
          "internalType": "address",
          "name": "recipient",
          "type": "address"
        },
        {
          "internalType": "uint256",
          "name": "tokenId",
          "type": "uint256"
        }
      ],
      "name": "mintNFT",
      "outputs": [],
      "stateMutability": "nonpayable",
      "type": "function"
    },
    {
      "inputs": [],
      "name": "name",
      "outputs": [
        {
          "internalType": "string",
          "name": "",
          "type": "string"
        }
      ],
      "stateMutability": "view",
      "type": "function"
    },
    {
      "inputs": [],
      "name": "owner",
      "outputs": [
        {
          "internalType": "address",
          "name": "",
          "type": "address"
        }
      ],
      "stateMutability": "view",
      "type": "function"
    },
    {
      "inputs": [
        {
          "internalType": "uint256",
          "name": "tokenId",
          "type": "uint256"
        }
      ],
      "name": "ownerOf",
      "outputs": [
        {
          "internalType": "address",
          "name": "",
          "type": "address"
        }
      ],
      "stateMutability": "view",
      "type": "function"
    },
    {
      "inputs": [
        {
          "internalType": "uint256",
          "name": "tokenId",
          "type": "uint256"
        }
      ],
      "name": "placeBid",
      "outputs": [],
      "stateMutability": "payable",
      "type": "function"
    },
    {
      "inputs": [],
      "name": "renounceOwnership",
      "outputs": [],
      "stateMutability": "nonpayable",
      "type": "function"
    },
    {
      "inputs": [
        {
          "internalType": "address",
          "name": "from",
          "type": "address"
        },
        {
          "internalType": "address",
          "name": "to",
          "type": "address"
        },
        {
          "internalType": "uint256",
          "name": "tokenId",
          "type": "uint256"
        }
      ],
      "name": "safeTransferFrom",
      "outputs": [],
      "stateMutability": "nonpayable",
      "type": "function"
    },
    {
      "inputs": [
        {
          "internalType": "address",
          "name": "from",
          "type": "address"
        },
        {
          "internalType": "address",
          "name": "to",
          "type": "address"
        },
        {
          "internalType": "uint256",
          "name": "tokenId",
          "type": "uint256"
        },
        {
          "internalType": "bytes",
          "name": "data",
          "type": "bytes"
        }
      ],
      "name": "safeTransferFrom",
      "outputs": [],
      "stateMutability": "nonpayable",
      "type": "function"
    },
    {
      "inputs": [
        {
          "internalType": "address",
          "name": "operator",
          "type": "address"
        },
        {
          "internalType": "bool",
          "name": "approved",
          "type": "bool"
        }
      ],
      "name": "setApprovalForAll",
      "outputs": [],
      "stateMutability": "nonpayable",
      "type": "function"
    },
    {
      "inputs": [
        {
          "internalType": "uint256",
          "name": "tokenId",
          "type": "uint256"
        },
        {
          "internalType": "uint256",
          "name": "startingPrice",
          "type": "uint256"
        },
        {
          "internalType": "uint256",
          "name": "duration",
          "type": "uint256"
        }
      ],
      "name": "startAuction",
      "outputs": [],
      "stateMutability": "nonpayable",
      "type": "function"
    },
    {
      "inputs": [
        {
          "internalType": "bytes4",
          "name": "interfaceId",
          "type": "bytes4"
        }
      ],
      "name": "supportsInterface",
      "outputs": [
        {
          "internalType": "bool",
          "name": "",
          "type": "bool"
        }
      ],
      "stateMutability": "view",
      "type": "function"
    },
    {
      "inputs": [],
      "name": "symbol",
      "outputs": [
        {
          "internalType": "string",
          "name": "",
          "type": "string"
        }
      ],
      "stateMutability": "view",
      "type": "function"
    },
    {
      "inputs": [
        {
          "internalType": "uint256",
          "name": "tokenId",
          "type": "uint256"
        }
      ],
      "name": "tokenURI",
      "outputs": [
        {
          "internalType": "string",
          "name": "",
          "type": "string"
        }
      ],
      "stateMutability": "view",
      "type": "function"
    },
    {
      "inputs": [
        {
          "internalType": "address",
          "name": "from",
          "type": "address"
        },
        {
          "internalType": "address",
          "name": "to",
          "type": "address"
        },
        {
          "internalType": "uint256",
          "name": "tokenId",
          "type": "uint256"
        }
      ],
      "name": "transferFrom",
      "outputs": [],
      "stateMutability": "nonpayable",
      "type": "function"
    },
    {
      "inputs": [
        {
          "internalType": "address",
          "name": "newOwner",
          "type": "address"
        }
      ],
      "name": "transferOwnership",
      "outputs": [],
      "stateMutability": "nonpayable",
      "type": "function"
    }
  ],
  "bytecode": "0x608060405234801561001057600080fd5b50604051611a1e380380611a1e83398101604081905261002f91610123565b806040518060400160405280600d81526020016c4e465441727447616c6c65727960981b815250604051806040016040528060058152602001644e4654414760d81b815250816000908161008391906101f2565b50600161009082826101f2565b5050506001600160a01b0381166100c157604051631e4fbdf760e01b81526000600482015260240160405180910390fd5b6100ca816100d1565b50506102b0565b600680546001600160a01b038381166001600160a01b0319831681179093556040519116919082907f8be0079c531659141344cd1fd0a4f28419497f9722a3daafe3b4186f6b6457e090600090a35050565b60006020828403121561013557600080fd5b81516001600160a01b038116811461014c57600080fd5b9392505050565b634e487b7160e01b600052604160045260246000fd5b600181811c9082168061017d57607f821691505b60208210810361019d57634e487b7160e01b600052602260045260246000fd5b50919050565b601f8211156101ed57806000526020600020601f840160051c810160208510156101ca5750805b601f840160051c820191505b818110156101ea57600081556001016101d6565b50505b505050565b81516001600160401b0381111561020b5761020b610153565b61021f816102198454610169565b846101a3565b6020601f821160018114610253576000831561023b5750848201515b600019600385901b1c1916600184901b1784556101ea565b600084815260208120601f198516915b828110156102835787850151825560209485019460019092019101610263565b50848210156102a15786840151600019600387901b60f8161c191681555b50505050600190811b01905550565b61175f806102bf6000396000f3fe60806040526004361061012a5760003560e01c8063715018a6116100ab578063a22cb4651161006f578063a22cb465146103a7578063b88d4fde146103c7578063b9a2de3a146103e7578063c87b56dd14610407578063e985e9c514610427578063f2fde38b1461044757600080fd5b8063715018a61461032c5780638da5cb5b1461034157806391e078bb1461035f57806395d89b411461037f5780639979ef451461039457600080fd5b80633c168eab116100f25780633c168eab1461020057806342842e0e14610220578063571a26a0146102405780636352211e146102de57806370a08231146102fe57600080fd5b806301ffc9a71461012f57806306fdde0314610164578063081812fc14610186578063095ea7b3146101be57806323b872dd146101e0575b600080fd5b34801561013b57600080fd5b5061014f61014a366004611379565b610467565b60405190151581526020015b60405180910390f35b34801561017057600080fd5b506101796104b9565b60405161015b91906113e6565b34801561019257600080fd5b506101a66101a13660046113f9565b61054b565b6040516001600160a01b03909116815260200161015b565b3480156101ca57600080fd5b506101de6101d936600461142e565b610574565b005b3480156101ec57600080fd5b506101de6101fb366004611458565b610583565b34801561020c57600080fd5b506101de61021b36600461142e565b610613565b34801561022c57600080fd5b506101de61023b366004611458565b610625565b34801561024c57600080fd5b506102a061025b3660046113f9565b6007602052600090815260409020805460018201546002830154600384015460048501546005909501546001600160a01b039485169593949293919092169160ff1686565b604080516001600160a01b039788168152602081019690965285019390935293166060830152608082019290925290151560a082015260c00161015b565b3480156102ea57600080fd5b506101a66102f93660046113f9565b610645565b34801561030a57600080fd5b5061031e610319366004611495565b610650565b60405190815260200161015b565b34801561033857600080fd5b506101de610698565b34801561034d57600080fd5b506006546001600160a01b03166101a6565b34801561036b57600080fd5b506101de61037a3660046114b0565b6106ac565b34801561038b57600080fd5b5061017961083d565b6101de6103a23660046113f9565b61084c565b3480156103b357600080fd5b506101de6103c23660046114dc565b61094f565b3480156103d357600080fd5b506101de6103e236600461152e565b61095a565b3480156103f357600080fd5b506101de6104023660046113f9565b610972565b34801561041357600080fd5b506101796104223660046113f9565b610aaa565b34801561043357600080fd5b5061014f610442366004611612565b610b1f565b34801561045357600080fd5b506101de610462366004611495565b610b4d565b60006001600160e01b031982166380ac58cd60e01b148061049857506001600160e01b03198216635b5e139f60e01b145b806104b357506301ffc9a760e01b6001600160e01b03198316145b92915050565b6060600080546104c890611645565b80601f01602080910402602001604051908101604052809291908181526020018280546104f490611645565b80156105415780601f1061051657610100808354040283529160200191610541565b820191906000526020600020905b81548152906001019060200180831161052457829003601f168201915b5050505050905090565b600061055682610b8b565b506000828152600460205260409020546001600160a01b03166104b3565b61057f828233610bc4565b5050565b6001600160a01b0382166105b257604051633250574960e11b8152600060048201526024015b60405180910390fd5b60006105bf838333610bd1565b9050836001600160a01b0316816001600160a01b03161461060d576040516364283d7b60e01b81526001600160a01b03808616600483015260248201849052821660448201526064016105a9565b50505050565b61061b610cca565b61057f8282610cf7565b6106408383836040518060200160405280600081525061095a565b505050565b60006104b382610b8b565b60006001600160a01b03821661067c576040516322718ad960e21b8152600060048201526024016105a9565b506001600160a01b031660009081526003602052604090205490565b6106a0610cca565b6106aa6000610d5c565b565b336106b684610645565b6001600160a01b03161461070c5760405162461bcd60e51b815260206004820152601860248201527f596f7520646f206e6f74206f776e2074686973204e46542e000000000000000060448201526064016105a9565b6000838152600760205260409020600401541561076b5760405162461bcd60e51b815260206004820152601760248201527f41756374696f6e20616c7265616479206578697374732e00000000000000000060448201526064016105a9565b6040518060c00160405280336001600160a01b031681526020018381526020016000815260200160006001600160a01b0316815260200182426107ae919061167f565b81526000602091820181905285815260078252604090819020835181546001600160a01b03199081166001600160a01b0392831617835593850151600183015591840151600282015560608401516003820180549094169216919091179091556080820151600482015560a0909101516005909101805460ff1916911515919091179055610640333085610583565b6060600180546104c890611645565b6000818152600760205260409020600481015442106108a25760405162461bcd60e51b815260206004820152601260248201527120bab1ba34b7b7103430b99032b73232b21760711b60448201526064016105a9565b806002015434116108e75760405162461bcd60e51b815260206004820152600f60248201526e2134b21034b9903a37b7903637bb9760891b60448201526064016105a9565b60028101541561093357600381015460028201546040516001600160a01b039092169181156108fc0291906000818181858888f19350505050158015610931573d6000803e3d6000fd5b505b34600282015560030180546001600160a01b0319163317905550565b61057f338383610dae565b610965848484610583565b61060d3385858585610e4d565b600081815260076020526040902060048101544210156109d45760405162461bcd60e51b815260206004820152601960248201527f41756374696f6e206973207374696c6c206f6e676f696e672e0000000000000060448201526064016105a9565b600581015460ff1615610a225760405162461bcd60e51b815260206004820152601660248201527520bab1ba34b7b71030b63932b0b23c9032b73232b21760511b60448201526064016105a9565b60058101805460ff19166001179055600281015415610a9357805460028201546040516001600160a01b039092169181156108fc0291906000818181858888f19350505050158015610a78573d6000803e3d6000fd5b50600381015461057f9030906001600160a01b031684610f78565b805461057f9030906001600160a01b031684610f78565b6060610ab582610b8b565b506000610acd60408051602081019091526000815290565b90506000815111610aed5760405180602001604052806000815250610b18565b80610af784611028565b604051602001610b089291906116a0565b6040516020818303038152906040525b9392505050565b6001600160a01b03918216600090815260056020908152604080832093909416825291909152205460ff1690565b610b55610cca565b6001600160a01b038116610b7f57604051631e4fbdf760e01b8152600060048201526024016105a9565b610b8881610d5c565b50565b6000818152600260205260408120546001600160a01b0316806104b357604051637e27328960e01b8152600481018490526024016105a9565b61064083838360016110bb565b6000828152600260205260408120546001600160a01b0390811690831615610bfe57610bfe8184866111c1565b6001600160a01b03811615610c3c57610c1b6000856000806110bb565b6001600160a01b038116600090815260036020526040902080546000190190555b6001600160a01b03851615610c6b576001600160a01b0385166000908152600360205260409020805460010190555b60008481526002602052604080822080546001600160a01b0319166001600160a01b0389811691821790925591518793918516917fddf252ad1be2c89b69c2b068fc378daa952ba7f163c4a11628f55a4df523b3ef91a4949350505050565b6006546001600160a01b031633146106aa5760405163118cdaa760e01b81523360048201526024016105a9565b6001600160a01b038216610d2157604051633250574960e11b8152600060048201526024016105a9565b6000610d2f83836000610bd1565b90506001600160a01b03811615610640576040516339e3563760e11b8152600060048201526024016105a9565b600680546001600160a01b038381166001600160a01b0319831681179093556040519116919082907f8be0079c531659141344cd1fd0a4f28419497f9722a3daafe3b4186f6b6457e090600090a35050565b6001600160a01b038216610de057604051630b61174360e31b81526001600160a01b03831660048201526024016105a9565b6001600160a01b03838116600081815260056020908152604080832094871680845294825291829020805460ff191686151590811790915591519182527f17307eab39ab6107e8899845ad3d59bd9653f200f220920489ca2b5937696c31910160405180910390a3505050565b6001600160a01b0383163b15610f7157604051630a85bd0160e11b81526001600160a01b0384169063150b7a0290610e8f9088908890879087906004016116cf565b6020604051808303816000875af1925050508015610eca575060408051601f3d908101601f19168201909252610ec79181019061170c565b60015b610f33573d808015610ef8576040519150601f19603f3d011682016040523d82523d6000602084013e610efd565b606091505b508051600003610f2b57604051633250574960e11b81526001600160a01b03851660048201526024016105a9565b805181602001fd5b6001600160e01b03198116630a85bd0160e11b14610f6f57604051633250574960e11b81526001600160a01b03851660048201526024016105a9565b505b5050505050565b6001600160a01b038216610fa257604051633250574960e11b8152600060048201526024016105a9565b6000610fb083836000610bd1565b90506001600160a01b038116610fdc57604051637e27328960e01b8152600481018390526024016105a9565b836001600160a01b0316816001600160a01b03161461060d576040516364283d7b60e01b81526001600160a01b03808616600483015260248201849052821660448201526064016105a9565b6060600061103583611225565b600101905060008167ffffffffffffffff81111561105557611055611518565b6040519080825280601f01601f19166020018201604052801561107f576020820181803683370190505b5090508181016020015b600019016f181899199a1a9b1b9c1cb0b131b232b360811b600a86061a8153600a850494508461108957509392505050565b80806110cf57506001600160a01b03821615155b156111915760006110df84610b8b565b90506001600160a01b0383161580159061110b5750826001600160a01b0316816001600160a01b031614155b801561111e575061111c8184610b1f565b155b156111475760405163a9fbf51f60e01b81526001600160a01b03841660048201526024016105a9565b811561118f5783856001600160a01b0316826001600160a01b03167f8c5be1e5ebec7d5bd14f71427d1e84f3dd0314c0f7b2291e5b200ac8c7c3b92560405160405180910390a45b505b5050600090815260046020526040902080546001600160a01b0319166001600160a01b0392909216919091179055565b6111cc8383836112fd565b610640576001600160a01b0383166111fa57604051637e27328960e01b8152600481018290526024016105a9565b60405163177e802f60e01b81526001600160a01b0383166004820152602481018290526044016105a9565b60008072184f03e93ff9f4daa797ed6e38ed64bf6a1f0160401b83106112645772184f03e93ff9f4daa797ed6e38ed64bf6a1f0160401b830492506040015b6d04ee2d6d415b85acef81000000008310611290576d04ee2d6d415b85acef8100000000830492506020015b662386f26fc1000083106112ae57662386f26fc10000830492506010015b6305f5e10083106112c6576305f5e100830492506008015b61271083106112da57612710830492506004015b606483106112ec576064830492506002015b600a83106104b35760010192915050565b60006001600160a01b0383161580159061135b5750826001600160a01b0316846001600160a01b0316148061133757506113378484610b1f565b8061135b57506000828152600460205260409020546001600160a01b038481169116145b949350505050565b6001600160e01b031981168114610b8857600080fd5b60006020828403121561138b57600080fd5b8135610b1881611363565b60005b838110156113b1578181015183820152602001611399565b50506000910152565b600081518084526113d2816020860160208601611396565b601f01601f19169290920160200192915050565b602081526000610b1860208301846113ba565b60006020828403121561140b57600080fd5b5035919050565b80356001600160a01b038116811461142957600080fd5b919050565b6000806040838503121561144157600080fd5b61144a83611412565b946020939093013593505050565b60008060006060848603121561146d57600080fd5b61147684611412565b925061148460208501611412565b929592945050506040919091013590565b6000602082840312156114a757600080fd5b610b1882611412565b6000806000606084860312156114c557600080fd5b505081359360208301359350604090920135919050565b600080604083850312156114ef57600080fd5b6114f883611412565b91506020830135801515811461150d57600080fd5b809150509250929050565b634e487b7160e01b600052604160045260246000fd5b6000806000806080858703121561154457600080fd5b61154d85611412565b935061155b60208601611412565b925060408501359150606085013567ffffffffffffffff81111561157e57600080fd5b8501601f8101871361158f57600080fd5b803567ffffffffffffffff8111156115a9576115a9611518565b604051601f8201601f19908116603f0116810167ffffffffffffffff811182821017156115d8576115d8611518565b6040528181528282016020018910156115f057600080fd5b8160208401602083013760006020838301015280935050505092959194509250565b6000806040838503121561162557600080fd5b61162e83611412565b915061163c60208401611412565b90509250929050565b600181811c9082168061165957607f821691505b60208210810361167957634e487b7160e01b600052602260045260246000fd5b50919050565b808201808211156104b357634e487b7160e01b600052601160045260246000fd5b600083516116b2818460208801611396565b8351908301906116c6818360208801611396565b01949350505050565b6001600160a01b0385811682528416602082015260408101839052608060608201819052600090611702908301846113ba565b9695505050505050565b60006020828403121561171e57600080fd5b8151610b188161136356fea2646970667358221220218246e593fa87cd9e253669b6a8fd0a929e167e00ba81ce5f45f51e5966a0b464736f6c634300081b0033",
  "linkReferences": {},
  "deployedLinkReferences": {}
}